{
  "_format": "hh-sol-artifact-1",
  "contractName": "UrbaneStablecoin",
  "sourceName": "contracts/UrbaneStablecoin.sol",
  "abi": [
    {
      "inputs": [
        {
          "internalType": "address",
          "name": "initialOwner",
          "type": "address"
        }
      ],
      "stateMutability": "nonpayable",
      "type": "constructor"
    },
    {
      "inputs": [],
      "name": "AccessControlBadConfirmation",
      "type": "error"
    },
    {
      "inputs": [
        {
          "internalType": "address",
          "name": "account",
          "type": "address"
        },
        {
          "internalType": "bytes32",
          "name": "neededRole",
          "type": "bytes32"
        }
      ],
      "name": "AccessControlUnauthorizedAccount",
      "type": "error"
    },
    {
      "inputs": [
        {
          "internalType": "address",
          "name": "spender",
          "type": "address"
        },
        {
          "internalType": "uint256",
          "name": "allowance",
          "type": "uint256"
        },
        {
          "internalType": "uint256",
          "name": "needed",
          "type": "uint256"
        }
      ],
      "name": "ERC20InsufficientAllowance",
      "type": "error"
    },
    {
      "inputs": [
        {
          "internalType": "address",
          "name": "sender",
          "type": "address"
        },
        {
          "internalType": "uint256",
          "name": "balance",
          "type": "uint256"
        },
        {
          "internalType": "uint256",
          "name": "needed",
          "type": "uint256"
        }
      ],
      "name": "ERC20InsufficientBalance",
      "type": "error"
    },
    {
      "inputs": [
        {
          "internalType": "address",
          "name": "approver",
          "type": "address"
        }
      ],
      "name": "ERC20InvalidApprover",
      "type": "error"
    },
    {
      "inputs": [
        {
          "internalType": "address",
          "name": "receiver",
          "type": "address"
        }
      ],
      "name": "ERC20InvalidReceiver",
      "type": "error"
    },
    {
      "inputs": [
        {
          "internalType": "address",
          "name": "sender",
          "type": "address"
        }
      ],
      "name": "ERC20InvalidSender",
      "type": "error"
    },
    {
      "inputs": [
        {
          "internalType": "address",
          "name": "spender",
          "type": "address"
        }
      ],
      "name": "ERC20InvalidSpender",
      "type": "error"
    },
    {
      "inputs": [
        {
          "internalType": "address",
          "name": "owner",
          "type": "address"
        }
      ],
      "name": "OwnableInvalidOwner",
      "type": "error"
    },
    {
      "inputs": [
        {
          "internalType": "address",
          "name": "account",
          "type": "address"
        }
      ],
      "name": "OwnableUnauthorizedAccount",
      "type": "error"
    },
    {
      "anonymous": false,
      "inputs": [
        {
          "indexed": true,
          "internalType": "address",
          "name": "owner",
          "type": "address"
        },
        {
          "indexed": true,
          "internalType": "address",
          "name": "spender",
          "type": "address"
        },
        {
          "indexed": false,
          "internalType": "uint256",
          "name": "value",
          "type": "uint256"
        }
      ],
      "name": "Approval",
      "type": "event"
    },
    {
      "anonymous": false,
      "inputs": [
        {
          "indexed": true,
          "internalType": "address",
          "name": "previousOwner",
          "type": "address"
        },
        {
          "indexed": true,
          "internalType": "address",
          "name": "newOwner",
          "type": "address"
        }
      ],
      "name": "OwnershipTransferred",
      "type": "event"
    },
    {
      "anonymous": false,
      "inputs": [
        {
          "indexed": true,
          "internalType": "bytes32",
          "name": "role",
          "type": "bytes32"
        },
        {
          "indexed": true,
          "internalType": "bytes32",
          "name": "previousAdminRole",
          "type": "bytes32"
        },
        {
          "indexed": true,
          "internalType": "bytes32",
          "name": "newAdminRole",
          "type": "bytes32"
        }
      ],
      "name": "RoleAdminChanged",
      "type": "event"
    },
    {
      "anonymous": false,
      "inputs": [
        {
          "indexed": true,
          "internalType": "bytes32",
          "name": "role",
          "type": "bytes32"
        },
        {
          "indexed": true,
          "internalType": "address",
          "name": "account",
          "type": "address"
        },
        {
          "indexed": true,
          "internalType": "address",
          "name": "sender",
          "type": "address"
        }
      ],
      "name": "RoleGranted",
      "type": "event"
    },
    {
      "anonymous": false,
      "inputs": [
        {
          "indexed": true,
          "internalType": "bytes32",
          "name": "role",
          "type": "bytes32"
        },
        {
          "indexed": true,
          "internalType": "address",
          "name": "account",
          "type": "address"
        },
        {
          "indexed": true,
          "internalType": "address",
          "name": "sender",
          "type": "address"
        }
      ],
      "name": "RoleRevoked",
      "type": "event"
    },
    {
      "anonymous": false,
      "inputs": [
        {
          "indexed": true,
          "internalType": "address",
          "name": "from",
          "type": "address"
        },
        {
          "indexed": true,
          "internalType": "address",
          "name": "to",
          "type": "address"
        },
        {
          "indexed": false,
          "internalType": "uint256",
          "name": "value",
          "type": "uint256"
        }
      ],
      "name": "Transfer",
      "type": "event"
    },
    {
      "inputs": [],
      "name": "DEFAULT_ADMIN_ROLE",
      "outputs": [
        {
          "internalType": "bytes32",
          "name": "",
          "type": "bytes32"
        }
      ],
      "stateMutability": "view",
      "type": "function"
    },
    {
      "inputs": [],
      "name": "MANAGER_ROLE",
      "outputs": [
        {
          "internalType": "bytes32",
          "name": "",
          "type": "bytes32"
        }
      ],
      "stateMutability": "view",
      "type": "function"
    },
    {
      "inputs": [
        {
          "internalType": "address",
          "name": "owner",
          "type": "address"
        },
        {
          "internalType": "address",
          "name": "spender",
          "type": "address"
        }
      ],
      "name": "allowance",
      "outputs": [
        {
          "internalType": "uint256",
          "name": "",
          "type": "uint256"
        }
      ],
      "stateMutability": "view",
      "type": "function"
    },
    {
      "inputs": [
        {
          "internalType": "address",
          "name": "spender",
          "type": "address"
        },
        {
          "internalType": "uint256",
          "name": "value",
          "type": "uint256"
        }
      ],
      "name": "approve",
      "outputs": [
        {
          "internalType": "bool",
          "name": "",
          "type": "bool"
        }
      ],
      "stateMutability": "nonpayable",
      "type": "function"
    },
    {
      "inputs": [
        {
          "internalType": "address",
          "name": "account",
          "type": "address"
        }
      ],
      "name": "balanceOf",
      "outputs": [
        {
          "internalType": "uint256",
          "name": "",
          "type": "uint256"
        }
      ],
      "stateMutability": "view",
      "type": "function"
    },
    {
      "inputs": [
        {
          "internalType": "uint256",
          "name": "value",
          "type": "uint256"
        }
      ],
      "name": "burn",
      "outputs": [],
      "stateMutability": "nonpayable",
      "type": "function"
    },
    {
      "inputs": [
        {
          "internalType": "address",
          "name": "account",
          "type": "address"
        },
        {
          "internalType": "uint256",
          "name": "value",
          "type": "uint256"
        }
      ],
      "name": "burnFrom",
      "outputs": [],
      "stateMutability": "nonpayable",
      "type": "function"
    },
    {
      "inputs": [],
      "name": "decimals",
      "outputs": [
        {
          "internalType": "uint8",
          "name": "",
          "type": "uint8"
        }
      ],
      "stateMutability": "view",
      "type": "function"
    },
    {
      "inputs": [
        {
          "internalType": "bytes32",
          "name": "role",
          "type": "bytes32"
        }
      ],
      "name": "getRoleAdmin",
      "outputs": [
        {
          "internalType": "bytes32",
          "name": "",
          "type": "bytes32"
        }
      ],
      "stateMutability": "view",
      "type": "function"
    },
    {
      "inputs": [
        {
          "internalType": "bytes32",
          "name": "role",
          "type": "bytes32"
        },
        {
          "internalType": "address",
          "name": "account",
          "type": "address"
        }
      ],
      "name": "grantRole",
      "outputs": [],
      "stateMutability": "nonpayable",
      "type": "function"
    },
    {
      "inputs": [
        {
          "internalType": "bytes32",
          "name": "role",
          "type": "bytes32"
        },
        {
          "internalType": "address",
          "name": "account",
          "type": "address"
        }
      ],
      "name": "hasRole",
      "outputs": [
        {
          "internalType": "bool",
          "name": "",
          "type": "bool"
        }
      ],
      "stateMutability": "view",
      "type": "function"
    },
    {
      "inputs": [
        {
          "internalType": "uint256",
          "name": "amount",
          "type": "uint256"
        }
      ],
      "name": "mint",
      "outputs": [],
      "stateMutability": "nonpayable",
      "type": "function"
    },
    {
      "inputs": [],
      "name": "name",
      "outputs": [
        {
          "internalType": "string",
          "name": "",
          "type": "string"
        }
      ],
      "stateMutability": "view",
      "type": "function"
    },
    {
      "inputs": [],
      "name": "owner",
      "outputs": [
        {
          "internalType": "address",
          "name": "",
          "type": "address"
        }
      ],
      "stateMutability": "view",
      "type": "function"
    },
    {
      "inputs": [],
      "name": "renounceOwnership",
      "outputs": [],
      "stateMutability": "nonpayable",
      "type": "function"
    },
    {
      "inputs": [
        {
          "internalType": "bytes32",
          "name": "role",
          "type": "bytes32"
        },
        {
          "internalType": "address",
          "name": "callerConfirmation",
          "type": "address"
        }
      ],
      "name": "renounceRole",
      "outputs": [],
      "stateMutability": "nonpayable",
      "type": "function"
    },
    {
      "inputs": [
        {
          "internalType": "bytes32",
          "name": "role",
          "type": "bytes32"
        },
        {
          "internalType": "address",
          "name": "account",
          "type": "address"
        }
      ],
      "name": "revokeRole",
      "outputs": [],
      "stateMutability": "nonpayable",
      "type": "function"
    },
    {
      "inputs": [
        {
          "internalType": "bytes4",
          "name": "interfaceId",
          "type": "bytes4"
        }
      ],
      "name": "supportsInterface",
      "outputs": [
        {
          "internalType": "bool",
          "name": "",
          "type": "bool"
        }
      ],
      "stateMutability": "view",
      "type": "function"
    },
    {
      "inputs": [],
      "name": "symbol",
      "outputs": [
        {
          "internalType": "string",
          "name": "",
          "type": "string"
        }
      ],
      "stateMutability": "view",
      "type": "function"
    },
    {
      "inputs": [],
      "name": "totalSupply",
      "outputs": [
        {
          "internalType": "uint256",
          "name": "",
          "type": "uint256"
        }
      ],
      "stateMutability": "view",
      "type": "function"
    },
    {
      "inputs": [
        {
          "internalType": "address",
          "name": "to",
          "type": "address"
        },
        {
          "internalType": "uint256",
          "name": "value",
          "type": "uint256"
        }
      ],
      "name": "transfer",
      "outputs": [
        {
          "internalType": "bool",
          "name": "",
          "type": "bool"
        }
      ],
      "stateMutability": "nonpayable",
      "type": "function"
    },
    {
      "inputs": [
        {
          "internalType": "address",
          "name": "from",
          "type": "address"
        },
        {
          "internalType": "address",
          "name": "to",
          "type": "address"
        },
        {
          "internalType": "uint256",
          "name": "value",
          "type": "uint256"
        }
      ],
      "name": "transferFrom",
      "outputs": [
        {
          "internalType": "bool",
          "name": "",
          "type": "bool"
        }
      ],
      "stateMutability": "nonpayable",
      "type": "function"
    },
    {
      "inputs": [
        {
          "internalType": "address",
          "name": "newOwner",
          "type": "address"
        }
      ],
      "name": "transferOwnership",
      "outputs": [],
      "stateMutability": "nonpayable",
      "type": "function"
    }
  ],
  "bytecode": "0x60806040523480156200001157600080fd5b506040516200241038038062002410833981810160405281019062000037919062000466565b806040518060400160405280601081526020017f557262616e65537461626c65636f696e000000000000000000000000000000008152506040518060400160405280600381526020017f55524200000000000000000000000000000000000000000000000000000000008152508160039081620000b5919062000712565b508060049081620000c7919062000712565b505050600073ffffffffffffffffffffffffffffffffffffffff168173ffffffffffffffffffffffffffffffffffffffff16036200013f5760006040517f1e4fbdf70000000000000000000000000000000000000000000000000000000081526004016200013691906200080a565b60405180910390fd5b6200015081620001bf60201b60201c565b50620001756000801b620001696200028560201b60201c565b6200028d60201b60201c565b50620001b77f241ecf16d79d0f8dbfb92cbc07fe17840425976cf0667f022fe9877caa831b08620001ab6200028560201b60201c565b6200028d60201b60201c565b505062000827565b6000600560009054906101000a900473ffffffffffffffffffffffffffffffffffffffff16905081600560006101000a81548173ffffffffffffffffffffffffffffffffffffffff021916908373ffffffffffffffffffffffffffffffffffffffff1602179055508173ffffffffffffffffffffffffffffffffffffffff168173ffffffffffffffffffffffffffffffffffffffff167f8be0079c531659141344cd1fd0a4f28419497f9722a3daafe3b4186f6b6457e060405160405180910390a35050565b600033905090565b6000620002a183836200039160201b60201c565b620003865760016006600085815260200190815260200160002060000160008473ffffffffffffffffffffffffffffffffffffffff1673ffffffffffffffffffffffffffffffffffffffff16815260200190815260200160002060006101000a81548160ff021916908315150217905550620003226200028560201b60201c565b73ffffffffffffffffffffffffffffffffffffffff168273ffffffffffffffffffffffffffffffffffffffff16847f2f8788117e7eff1d82e926ec794901d17c78024a50270940304540a733656f0d60405160405180910390a4600190506200038b565b600090505b92915050565b60006006600084815260200190815260200160002060000160008373ffffffffffffffffffffffffffffffffffffffff1673ffffffffffffffffffffffffffffffffffffffff16815260200190815260200160002060009054906101000a900460ff16905092915050565b600080fd5b600073ffffffffffffffffffffffffffffffffffffffff82169050919050565b60006200042e8262000401565b9050919050565b620004408162000421565b81146200044c57600080fd5b50565b600081519050620004608162000435565b92915050565b6000602082840312156200047f576200047e620003fc565b5b60006200048f848285016200044f565b91505092915050565b600081519050919050565b7f4e487b7100000000000000000000000000000000000000000000000000000000600052604160045260246000fd5b7f4e487b7100000000000000000000000000000000000000000000000000000000600052602260045260246000fd5b600060028204905060018216806200051a57607f821691505b60208210810362000530576200052f620004d2565b5b50919050565b60008190508160005260206000209050919050565b60006020601f8301049050919050565b600082821b905092915050565b6000600883026200059a7fffffffffffffffffffffffffffffffffffffffffffffffffffffffffffffffff826200055b565b620005a686836200055b565b95508019841693508086168417925050509392505050565b6000819050919050565b6000819050919050565b6000620005f3620005ed620005e784620005be565b620005c8565b620005be565b9050919050565b6000819050919050565b6200060f83620005d2565b620006276200061e82620005fa565b84845462000568565b825550505050565b600090565b6200063e6200062f565b6200064b81848462000604565b505050565b5b8181101562000673576200066760008262000634565b60018101905062000651565b5050565b601f821115620006c2576200068c8162000536565b62000697846200054b565b81016020851015620006a7578190505b620006bf620006b6856200054b565b83018262000650565b50505b505050565b600082821c905092915050565b6000620006e760001984600802620006c7565b1980831691505092915050565b6000620007028383620006d4565b9150826002028217905092915050565b6200071d8262000498565b67ffffffffffffffff811115620007395762000738620004a3565b5b62000745825462000501565b6200075282828562000677565b600060209050601f8311600181146200078a576000841562000775578287015190505b620007818582620006f4565b865550620007f1565b601f1984166200079a8662000536565b60005b82811015620007c4578489015182556001820191506020850194506020810190506200079d565b86831015620007e45784890151620007e0601f891682620006d4565b8355505b6001600288020188555050505b505050505050565b620008048162000421565b82525050565b6000602082019050620008216000830184620007f9565b92915050565b611bd980620008376000396000f3fe608060405234801561001057600080fd5b506004361061014d5760003560e01c8063715018a6116100c3578063a217fddf1161007c578063a217fddf1461039e578063a9059cbb146103bc578063d547741f146103ec578063dd62ed3e14610408578063ec87621c14610438578063f2fde38b146104565761014d565b8063715018a6146102f057806379cc6790146102fa5780638da5cb5b1461031657806391d148541461033457806395d89b4114610364578063a0712d68146103825761014d565b8063248a9ca311610115578063248a9ca31461021e5780632f2ff15d1461024e578063313ce5671461026a57806336568abe1461028857806342966c68146102a457806370a08231146102c05761014d565b806301ffc9a71461015257806306fdde0314610182578063095ea7b3146101a057806318160ddd146101d057806323b872dd146101ee575b600080fd5b61016c600480360381019061016791906115c0565b610472565b6040516101799190611608565b60405180910390f35b61018a6104ec565b60405161019791906116b3565b60405180910390f35b6101ba60048036038101906101b59190611769565b61057e565b6040516101c79190611608565b60405180910390f35b6101d86105a1565b6040516101e591906117b8565b60405180910390f35b610208600480360381019061020391906117d3565b6105ab565b6040516102159190611608565b60405180910390f35b6102386004803603810190610233919061185c565b6105da565b6040516102459190611898565b60405180910390f35b610268600480360381019061026391906118b3565b6105fa565b005b61027261061c565b60405161027f919061190f565b60405180910390f35b6102a2600480360381019061029d91906118b3565b610625565b005b6102be60048036038101906102b9919061192a565b6106a0565b005b6102da60048036038101906102d59190611957565b6106b4565b6040516102e791906117b8565b60405180910390f35b6102f86106fc565b005b610314600480360381019061030f9190611769565b610710565b005b61031e610730565b60405161032b9190611993565b60405180910390f35b61034e600480360381019061034991906118b3565b61075a565b60405161035b9190611608565b60405180910390f35b61036c6107c5565b60405161037991906116b3565b60405180910390f35b61039c6004803603810190610397919061192a565b610857565b005b6103a6610943565b6040516103b39190611898565b60405180910390f35b6103d660048036038101906103d19190611769565b61094a565b6040516103e39190611608565b60405180910390f35b610406600480360381019061040191906118b3565b61096d565b005b610422600480360381019061041d91906119ae565b61098f565b60405161042f91906117b8565b60405180910390f35b610440610a16565b60405161044d9190611898565b60405180910390f35b610470600480360381019061046b9190611957565b610a3a565b005b60007f7965db0b000000000000000000000000000000000000000000000000000000007bffffffffffffffffffffffffffffffffffffffffffffffffffffffff1916827bffffffffffffffffffffffffffffffffffffffffffffffffffffffff191614806104e557506104e482610ac0565b5b9050919050565b6060600380546104fb90611a1d565b80601f016020809104026020016040519081016040528092919081815260200182805461052790611a1d565b80156105745780601f1061054957610100808354040283529160200191610574565b820191906000526020600020905b81548152906001019060200180831161055757829003601f168201915b5050505050905090565b600080610589610b2a565b9050610596818585610b32565b600191505092915050565b6000600254905090565b6000806105b6610b2a565b90506105c3858285610b44565b6105ce858585610bd8565b60019150509392505050565b600060066000838152602001908152602001600020600101549050919050565b610603826105da565b61060c81610ccc565b6106168383610ce0565b50505050565b60006012905090565b61062d610b2a565b73ffffffffffffffffffffffffffffffffffffffff168173ffffffffffffffffffffffffffffffffffffffff1614610691576040517f6697b23200000000000000000000000000000000000000000000000000000000815260040160405180910390fd5b61069b8282610dd2565b505050565b6106b16106ab610b2a565b82610ec5565b50565b60008060008373ffffffffffffffffffffffffffffffffffffffff1673ffffffffffffffffffffffffffffffffffffffff168152602001908152602001600020549050919050565b610704610f47565b61070e6000610fce565b565b6107228261071c610b2a565b83610b44565b61072c8282610ec5565b5050565b6000600560009054906101000a900473ffffffffffffffffffffffffffffffffffffffff16905090565b60006006600084815260200190815260200160002060000160008373ffffffffffffffffffffffffffffffffffffffff1673ffffffffffffffffffffffffffffffffffffffff16815260200190815260200160002060009054906101000a900460ff16905092915050565b6060600480546107d490611a1d565b80601f016020809104026020016040519081016040528092919081815260200182805461080090611a1d565b801561084d5780601f106108225761010080835404028352916020019161084d565b820191906000526020600020905b81548152906001019060200180831161083057829003601f168201915b5050505050905090565b6108887f241ecf16d79d0f8dbfb92cbc07fe17840425976cf0667f022fe9877caa831b08610883610b2a565b61075a565b6108c7576040517f08c379a00000000000000000000000000000000000000000000000000000000081526004016108be90611ac0565b60405180910390fd5b80600860008282546108d99190611b0f565b9250508190555080600760003373ffffffffffffffffffffffffffffffffffffffff1673ffffffffffffffffffffffffffffffffffffffff168152602001908152602001600020600082825461092f9190611b0f565b925050819055506109403382611094565b50565b6000801b81565b600080610955610b2a565b9050610962818585610bd8565b600191505092915050565b610976826105da565b61097f81610ccc565b6109898383610dd2565b50505050565b6000600160008473ffffffffffffffffffffffffffffffffffffffff1673ffffffffffffffffffffffffffffffffffffffff16815260200190815260200160002060008373ffffffffffffffffffffffffffffffffffffffff1673ffffffffffffffffffffffffffffffffffffffff16815260200190815260200160002054905092915050565b7f241ecf16d79d0f8dbfb92cbc07fe17840425976cf0667f022fe9877caa831b0881565b610a42610f47565b600073ffffffffffffffffffffffffffffffffffffffff168173ffffffffffffffffffffffffffffffffffffffff1603610ab45760006040517f1e4fbdf7000000000000000000000000000000000000000000000000000000008152600401610aab9190611993565b60405180910390fd5b610abd81610fce565b50565b60007f01ffc9a7000000000000000000000000000000000000000000000000000000007bffffffffffffffffffffffffffffffffffffffffffffffffffffffff1916827bffffffffffffffffffffffffffffffffffffffffffffffffffffffff1916149050919050565b600033905090565b610b3f8383836001611116565b505050565b6000610b50848461098f565b90507fffffffffffffffffffffffffffffffffffffffffffffffffffffffffffffffff8114610bd25781811015610bc2578281836040517ffb8f41b2000000000000000000000000000000000000000000000000000000008152600401610bb993929190611b43565b60405180910390fd5b610bd184848484036000611116565b5b50505050565b600073ffffffffffffffffffffffffffffffffffffffff168373ffffffffffffffffffffffffffffffffffffffff1603610c4a5760006040517f96c6fd1e000000000000000000000000000000000000000000000000000000008152600401610c419190611993565b60405180910390fd5b600073ffffffffffffffffffffffffffffffffffffffff168273ffffffffffffffffffffffffffffffffffffffff1603610cbc5760006040517fec442f05000000000000000000000000000000000000000000000000000000008152600401610cb39190611993565b60405180910390fd5b610cc78383836112ed565b505050565b610cdd81610cd8610b2a565b611512565b50565b6000610cec838361075a565b610dc75760016006600085815260200190815260200160002060000160008473ffffffffffffffffffffffffffffffffffffffff1673ffffffffffffffffffffffffffffffffffffffff16815260200190815260200160002060006101000a81548160ff021916908315150217905550610d64610b2a565b73ffffffffffffffffffffffffffffffffffffffff168273ffffffffffffffffffffffffffffffffffffffff16847f2f8788117e7eff1d82e926ec794901d17c78024a50270940304540a733656f0d60405160405180910390a460019050610dcc565b600090505b92915050565b6000610dde838361075a565b15610eba5760006006600085815260200190815260200160002060000160008473ffffffffffffffffffffffffffffffffffffffff1673ffffffffffffffffffffffffffffffffffffffff16815260200190815260200160002060006101000a81548160ff021916908315150217905550610e57610b2a565b73ffffffffffffffffffffffffffffffffffffffff168273ffffffffffffffffffffffffffffffffffffffff16847ff6391f5c32d9c69d2a47ea670b442974b53935d1edc7fd64eb21e047a839171b60405160405180910390a460019050610ebf565b600090505b92915050565b600073ffffffffffffffffffffffffffffffffffffffff168273ffffffffffffffffffffffffffffffffffffffff1603610f375760006040517f96c6fd1e000000000000000000000000000000000000000000000000000000008152600401610f2e9190611993565b60405180910390fd5b610f43826000836112ed565b5050565b610f4f610b2a565b73ffffffffffffffffffffffffffffffffffffffff16610f6d610730565b73ffffffffffffffffffffffffffffffffffffffff1614610fcc57610f90610b2a565b6040517f118cdaa7000000000000000000000000000000000000000000000000000000008152600401610fc39190611993565b60405180910390fd5b565b6000600560009054906101000a900473ffffffffffffffffffffffffffffffffffffffff16905081600560006101000a81548173ffffffffffffffffffffffffffffffffffffffff021916908373ffffffffffffffffffffffffffffffffffffffff1602179055508173ffffffffffffffffffffffffffffffffffffffff168173ffffffffffffffffffffffffffffffffffffffff167f8be0079c531659141344cd1fd0a4f28419497f9722a3daafe3b4186f6b6457e060405160405180910390a35050565b600073ffffffffffffffffffffffffffffffffffffffff168273ffffffffffffffffffffffffffffffffffffffff16036111065760006040517fec442f050000000000000000000000000000000000000000000000000000000081526004016110fd9190611993565b60405180910390fd5b611112600083836112ed565b5050565b600073ffffffffffffffffffffffffffffffffffffffff168473ffffffffffffffffffffffffffffffffffffffff16036111885760006040517fe602df0500000000000000000000000000000000000000000000000000000000815260040161117f9190611993565b60405180910390fd5b600073ffffffffffffffffffffffffffffffffffffffff168373ffffffffffffffffffffffffffffffffffffffff16036111fa5760006040517f94280d620000000000000000000000000000000000000000000000000000000081526004016111f19190611993565b60405180910390fd5b81600160008673ffffffffffffffffffffffffffffffffffffffff1673ffffffffffffffffffffffffffffffffffffffff16815260200190815260200160002060008573ffffffffffffffffffffffffffffffffffffffff1673ffffffffffffffffffffffffffffffffffffffff1681526020019081526020016000208190555080156112e7578273ffffffffffffffffffffffffffffffffffffffff168473ffffffffffffffffffffffffffffffffffffffff167f8c5be1e5ebec7d5bd14f71427d1e84f3dd0314c0f7b2291e5b200ac8c7c3b925846040516112de91906117b8565b60405180910390a35b50505050565b600073ffffffffffffffffffffffffffffffffffffffff168373ffffffffffffffffffffffffffffffffffffffff160361133f5780600260008282546113339190611b0f565b92505081905550611412565b60008060008573ffffffffffffffffffffffffffffffffffffffff1673ffffffffffffffffffffffffffffffffffffffff168152602001908152602001600020549050818110156113cb578381836040517fe450d38c0000000000000000000000000000000000000000000000000000000081526004016113c293929190611b43565b60405180910390fd5b8181036000808673ffffffffffffffffffffffffffffffffffffffff1673ffffffffffffffffffffffffffffffffffffffff16815260200190815260200160002081905550505b600073ffffffffffffffffffffffffffffffffffffffff168273ffffffffffffffffffffffffffffffffffffffff160361145b57806002600082825403925050819055506114a8565b806000808473ffffffffffffffffffffffffffffffffffffffff1673ffffffffffffffffffffffffffffffffffffffff168152602001908152602001600020600082825401925050819055505b8173ffffffffffffffffffffffffffffffffffffffff168373ffffffffffffffffffffffffffffffffffffffff167fddf252ad1be2c89b69c2b068fc378daa952ba7f163c4a11628f55a4df523b3ef8360405161150591906117b8565b60405180910390a3505050565b61151c828261075a565b61155f5780826040517fe2517d3f000000000000000000000000000000000000000000000000000000008152600401611556929190611b7a565b60405180910390fd5b5050565b600080fd5b60007fffffffff0000000000000000000000000000000000000000000000000000000082169050919050565b61159d81611568565b81146115a857600080fd5b50565b6000813590506115ba81611594565b92915050565b6000602082840312156115d6576115d5611563565b5b60006115e4848285016115ab565b91505092915050565b60008115159050919050565b611602816115ed565b82525050565b600060208201905061161d60008301846115f9565b92915050565b600081519050919050565b600082825260208201905092915050565b60005b8381101561165d578082015181840152602081019050611642565b60008484015250505050565b6000601f19601f8301169050919050565b600061168582611623565b61168f818561162e565b935061169f81856020860161163f565b6116a881611669565b840191505092915050565b600060208201905081810360008301526116cd818461167a565b905092915050565b600073ffffffffffffffffffffffffffffffffffffffff82169050919050565b6000611700826116d5565b9050919050565b611710816116f5565b811461171b57600080fd5b50565b60008135905061172d81611707565b92915050565b6000819050919050565b61174681611733565b811461175157600080fd5b50565b6000813590506117638161173d565b92915050565b600080604083850312156117805761177f611563565b5b600061178e8582860161171e565b925050602061179f85828601611754565b9150509250929050565b6117b281611733565b82525050565b60006020820190506117cd60008301846117a9565b92915050565b6000806000606084860312156117ec576117eb611563565b5b60006117fa8682870161171e565b935050602061180b8682870161171e565b925050604061181c86828701611754565b9150509250925092565b6000819050919050565b61183981611826565b811461184457600080fd5b50565b60008135905061185681611830565b92915050565b60006020828403121561187257611871611563565b5b600061188084828501611847565b91505092915050565b61189281611826565b82525050565b60006020820190506118ad6000830184611889565b92915050565b600080604083850312156118ca576118c9611563565b5b60006118d885828601611847565b92505060206118e98582860161171e565b9150509250929050565b600060ff82169050919050565b611909816118f3565b82525050565b60006020820190506119246000830184611900565b92915050565b6000602082840312156119405761193f611563565b5b600061194e84828501611754565b91505092915050565b60006020828403121561196d5761196c611563565b5b600061197b8482850161171e565b91505092915050565b61198d816116f5565b82525050565b60006020820190506119a86000830184611984565b92915050565b600080604083850312156119c5576119c4611563565b5b60006119d38582860161171e565b92505060206119e48582860161171e565b9150509250929050565b7f4e487b7100000000000000000000000000000000000000000000000000000000600052602260045260246000fd5b60006002820490506001821680611a3557607f821691505b602082108103611a4857611a476119ee565b5b50919050565b7f4e6f7420616c6c6f77656420746f206d696e742074686520557262616e65207360008201527f7461626c65636f696e2e00000000000000000000000000000000000000000000602082015250565b6000611aaa602a8361162e565b9150611ab582611a4e565b604082019050919050565b60006020820190508181036000830152611ad981611a9d565b9050919050565b7f4e487b7100000000000000000000000000000000000000000000000000000000600052601160045260246000fd5b6000611b1a82611733565b9150611b2583611733565b9250828201905080821115611b3d57611b3c611ae0565b5b92915050565b6000606082019050611b586000830186611984565b611b6560208301856117a9565b611b7260408301846117a9565b949350505050565b6000604082019050611b8f6000830185611984565b611b9c6020830184611889565b939250505056fea2646970667358221220dff1863c926f160d849cfa75d57b7a0662cac867efb13ca69b0c1c7c0aa9aac364736f6c63430008180033",
  "linkReferences": {},
  "deployedLinkReferences": {}
}