{
  "_format": "hh-sol-artifact-1",
  "contractName": "Governance",
  "sourceName": "contracts/Governance.sol",
  "abi": [
    {
      "inputs": [
        {
          "internalType": "contract UrbaneStablecoin",
          "name": "_usc",
          "type": "address"
        },
        {
          "internalType": "address",
          "name": "initialOwner",
          "type": "address"
        }
      ],
      "stateMutability": "nonpayable",
      "type": "constructor"
    },
    {
      "inputs": [],
      "name": "AccessControlBadConfirmation",
      "type": "error"
    },
    {
      "inputs": [
        {
          "internalType": "address",
          "name": "account",
          "type": "address"
        },
        {
          "internalType": "bytes32",
          "name": "neededRole",
          "type": "bytes32"
        }
      ],
      "name": "AccessControlUnauthorizedAccount",
      "type": "error"
    },
    {
      "inputs": [
        {
          "internalType": "address",
          "name": "owner",
          "type": "address"
        }
      ],
      "name": "OwnableInvalidOwner",
      "type": "error"
    },
    {
      "inputs": [
        {
          "internalType": "address",
          "name": "account",
          "type": "address"
        }
      ],
      "name": "OwnableUnauthorizedAccount",
      "type": "error"
    },
    {
      "inputs": [],
      "name": "ReentrancyGuardReentrantCall",
      "type": "error"
    },
    {
      "anonymous": false,
      "inputs": [
        {
          "indexed": true,
          "internalType": "address",
          "name": "previousOwner",
          "type": "address"
        },
        {
          "indexed": true,
          "internalType": "address",
          "name": "newOwner",
          "type": "address"
        }
      ],
      "name": "OwnershipTransferred",
      "type": "event"
    },
    {
      "anonymous": false,
      "inputs": [
        {
          "indexed": false,
          "internalType": "uint256",
          "name": "time",
          "type": "uint256"
        },
        {
          "indexed": false,
          "internalType": "uint256",
          "name": "amount",
          "type": "uint256"
        }
      ],
      "name": "RepegAction",
      "type": "event"
    },
    {
      "anonymous": false,
      "inputs": [
        {
          "indexed": true,
          "internalType": "bytes32",
          "name": "role",
          "type": "bytes32"
        },
        {
          "indexed": true,
          "internalType": "bytes32",
          "name": "previousAdminRole",
          "type": "bytes32"
        },
        {
          "indexed": true,
          "internalType": "bytes32",
          "name": "newAdminRole",
          "type": "bytes32"
        }
      ],
      "name": "RoleAdminChanged",
      "type": "event"
    },
    {
      "anonymous": false,
      "inputs": [
        {
          "indexed": true,
          "internalType": "bytes32",
          "name": "role",
          "type": "bytes32"
        },
        {
          "indexed": true,
          "internalType": "address",
          "name": "account",
          "type": "address"
        },
        {
          "indexed": true,
          "internalType": "address",
          "name": "sender",
          "type": "address"
        }
      ],
      "name": "RoleGranted",
      "type": "event"
    },
    {
      "anonymous": false,
      "inputs": [
        {
          "indexed": true,
          "internalType": "bytes32",
          "name": "role",
          "type": "bytes32"
        },
        {
          "indexed": true,
          "internalType": "address",
          "name": "account",
          "type": "address"
        },
        {
          "indexed": true,
          "internalType": "address",
          "name": "sender",
          "type": "address"
        }
      ],
      "name": "RoleRevoked",
      "type": "event"
    },
    {
      "anonymous": false,
      "inputs": [
        {
          "indexed": false,
          "internalType": "uint256",
          "name": "time",
          "type": "uint256"
        },
        {
          "indexed": false,
          "internalType": "uint256",
          "name": "amount",
          "type": "uint256"
        }
      ],
      "name": "Withdraw",
      "type": "event"
    },
    {
      "inputs": [],
      "name": "DEFAULT_ADMIN_ROLE",
      "outputs": [
        {
          "internalType": "bytes32",
          "name": "",
          "type": "bytes32"
        }
      ],
      "stateMutability": "view",
      "type": "function"
    },
    {
      "inputs": [],
      "name": "GOVERN_ROLE",
      "outputs": [
        {
          "internalType": "bytes32",
          "name": "",
          "type": "bytes32"
        }
      ],
      "stateMutability": "view",
      "type": "function"
    },
    {
      "inputs": [
        {
          "internalType": "uint256",
          "name": "",
          "type": "uint256"
        }
      ],
      "name": "_supplyChanges",
      "outputs": [
        {
          "internalType": "string",
          "name": "method",
          "type": "string"
        },
        {
          "internalType": "uint256",
          "name": "amount",
          "type": "uint256"
        },
        {
          "internalType": "uint256",
          "name": "timestamp",
          "type": "uint256"
        },
        {
          "internalType": "uint256",
          "name": "blocknum",
          "type": "uint256"
        }
      ],
      "stateMutability": "view",
      "type": "function"
    },
    {
      "inputs": [
        {
          "internalType": "contract IERC20",
          "name": "_collateral",
          "type": "address"
        }
      ],
      "name": "addCollateralToken",
      "outputs": [],
      "stateMutability": "nonpayable",
      "type": "function"
    },
    {
      "inputs": [],
      "name": "dataFeed",
      "outputs": [
        {
          "internalType": "address",
          "name": "",
          "type": "address"
        }
      ],
      "stateMutability": "view",
      "type": "function"
    },
    {
      "inputs": [],
      "name": "fetchColPrice",
      "outputs": [],
      "stateMutability": "nonpayable",
      "type": "function"
    },
    {
      "inputs": [
        {
          "internalType": "bytes32",
          "name": "role",
          "type": "bytes32"
        }
      ],
      "name": "getRoleAdmin",
      "outputs": [
        {
          "internalType": "bytes32",
          "name": "",
          "type": "bytes32"
        }
      ],
      "stateMutability": "view",
      "type": "function"
    },
    {
      "inputs": [
        {
          "internalType": "bytes32",
          "name": "role",
          "type": "bytes32"
        },
        {
          "internalType": "address",
          "name": "account",
          "type": "address"
        }
      ],
      "name": "grantRole",
      "outputs": [],
      "stateMutability": "nonpayable",
      "type": "function"
    },
    {
      "inputs": [
        {
          "internalType": "bytes32",
          "name": "role",
          "type": "bytes32"
        },
        {
          "internalType": "address",
          "name": "account",
          "type": "address"
        }
      ],
      "name": "hasRole",
      "outputs": [
        {
          "internalType": "bool",
          "name": "",
          "type": "bool"
        }
      ],
      "stateMutability": "view",
      "type": "function"
    },
    {
      "inputs": [],
      "name": "owner",
      "outputs": [
        {
          "internalType": "address",
          "name": "",
          "type": "address"
        }
      ],
      "stateMutability": "view",
      "type": "function"
    },
    {
      "inputs": [],
      "name": "renounceOwnership",
      "outputs": [],
      "stateMutability": "nonpayable",
      "type": "function"
    },
    {
      "inputs": [
        {
          "internalType": "bytes32",
          "name": "role",
          "type": "bytes32"
        },
        {
          "internalType": "address",
          "name": "callerConfirmation",
          "type": "address"
        }
      ],
      "name": "renounceRole",
      "outputs": [],
      "stateMutability": "nonpayable",
      "type": "function"
    },
    {
      "inputs": [],
      "name": "reserveCount",
      "outputs": [
        {
          "internalType": "uint256",
          "name": "",
          "type": "uint256"
        }
      ],
      "stateMutability": "view",
      "type": "function"
    },
    {
      "inputs": [
        {
          "internalType": "bytes32",
          "name": "role",
          "type": "bytes32"
        },
        {
          "internalType": "address",
          "name": "account",
          "type": "address"
        }
      ],
      "name": "revokeRole",
      "outputs": [],
      "stateMutability": "nonpayable",
      "type": "function"
    },
    {
      "inputs": [
        {
          "internalType": "uint256",
          "name": "",
          "type": "uint256"
        }
      ],
      "name": "rsvList",
      "outputs": [
        {
          "internalType": "contract IERC20",
          "name": "colToken",
          "type": "address"
        }
      ],
      "stateMutability": "view",
      "type": "function"
    },
    {
      "inputs": [
        {
          "internalType": "address",
          "name": "_contract",
          "type": "address"
        }
      ],
      "name": "setDataFeedAddress",
      "outputs": [],
      "stateMutability": "nonpayable",
      "type": "function"
    },
    {
      "inputs": [
        {
          "internalType": "address",
          "name": "reserve",
          "type": "address"
        }
      ],
      "name": "setReserveContract",
      "outputs": [],
      "stateMutability": "nonpayable",
      "type": "function"
    },
    {
      "inputs": [
        {
          "internalType": "uint256",
          "name": "_supply",
          "type": "uint256"
        }
      ],
      "name": "setUSCSupply",
      "outputs": [],
      "stateMutability": "nonpayable",
      "type": "function"
    },
    {
      "inputs": [],
      "name": "stableColatAmount",
      "outputs": [
        {
          "internalType": "uint256",
          "name": "",
          "type": "uint256"
        }
      ],
      "stateMutability": "view",
      "type": "function"
    },
    {
      "inputs": [],
      "name": "stableColatPrice",
      "outputs": [
        {
          "internalType": "uint256",
          "name": "",
          "type": "uint256"
        }
      ],
      "stateMutability": "view",
      "type": "function"
    },
    {
      "inputs": [],
      "name": "supplyChangeCount",
      "outputs": [
        {
          "internalType": "uint256",
          "name": "",
          "type": "uint256"
        }
      ],
      "stateMutability": "view",
      "type": "function"
    },
    {
      "inputs": [
        {
          "internalType": "bytes4",
          "name": "interfaceId",
          "type": "bytes4"
        }
      ],
      "name": "supportsInterface",
      "outputs": [
        {
          "internalType": "bool",
          "name": "",
          "type": "bool"
        }
      ],
      "stateMutability": "view",
      "type": "function"
    },
    {
      "inputs": [
        {
          "internalType": "address",
          "name": "newOwner",
          "type": "address"
        }
      ],
      "name": "transferOwnership",
      "outputs": [],
      "stateMutability": "nonpayable",
      "type": "function"
    },
    {
      "inputs": [],
      "name": "unstableColPrice",
      "outputs": [
        {
          "internalType": "int256",
          "name": "",
          "type": "int256"
        }
      ],
      "stateMutability": "view",
      "type": "function"
    },
    {
      "inputs": [],
      "name": "unstableColatAmount",
      "outputs": [
        {
          "internalType": "uint256",
          "name": "",
          "type": "uint256"
        }
      ],
      "stateMutability": "view",
      "type": "function"
    },
    {
      "inputs": [],
      "name": "uscSupply",
      "outputs": [
        {
          "internalType": "uint256",
          "name": "",
          "type": "uint256"
        }
      ],
      "stateMutability": "view",
      "type": "function"
    },
    {
      "inputs": [],
      "name": "validatePeg",
      "outputs": [],
      "stateMutability": "nonpayable",
      "type": "function"
    },
    {
      "inputs": [
        {
          "internalType": "uint256",
          "name": "_amount",
          "type": "uint256"
        }
      ],
      "name": "withdraw",
      "outputs": [],
      "stateMutability": "nonpayable",
      "type": "function"
    }
  ],
  "bytecode": "0x6080604052670de0b6b3a7640000600b553480156200001d57600080fd5b5060405162002bf438038062002bf483398181016040528101906200004391906200046c565b80600073ffffffffffffffffffffffffffffffffffffffff168173ffffffffffffffffffffffffffffffffffffffff1603620000b95760006040517f1e4fbdf7000000000000000000000000000000000000000000000000000000008152600401620000b09190620004c4565b60405180910390fd5b620000ca816200018260201b60201c565b506001808190555081600560006101000a81548173ffffffffffffffffffffffffffffffffffffffff021916908373ffffffffffffffffffffffffffffffffffffffff160217905550620001376000801b6200012b6200024660201b60201c565b6200024e60201b60201c565b50620001797f899bd46557473cb80307a9dabc297131ced39608330a2d29b2d52b660c03923e6200016d6200024660201b60201c565b6200024e60201b60201c565b505050620004e1565b60008060009054906101000a900473ffffffffffffffffffffffffffffffffffffffff169050816000806101000a81548173ffffffffffffffffffffffffffffffffffffffff021916908373ffffffffffffffffffffffffffffffffffffffff1602179055508173ffffffffffffffffffffffffffffffffffffffff168173ffffffffffffffffffffffffffffffffffffffff167f8be0079c531659141344cd1fd0a4f28419497f9722a3daafe3b4186f6b6457e060405160405180910390a35050565b600033905090565b60006200026283836200035260201b60201c565b620003475760016002600085815260200190815260200160002060000160008473ffffffffffffffffffffffffffffffffffffffff1673ffffffffffffffffffffffffffffffffffffffff16815260200190815260200160002060006101000a81548160ff021916908315150217905550620002e36200024660201b60201c565b73ffffffffffffffffffffffffffffffffffffffff168273ffffffffffffffffffffffffffffffffffffffff16847f2f8788117e7eff1d82e926ec794901d17c78024a50270940304540a733656f0d60405160405180910390a4600190506200034c565b600090505b92915050565b60006002600084815260200190815260200160002060000160008373ffffffffffffffffffffffffffffffffffffffff1673ffffffffffffffffffffffffffffffffffffffff16815260200190815260200160002060009054906101000a900460ff16905092915050565b600080fd5b600073ffffffffffffffffffffffffffffffffffffffff82169050919050565b6000620003ef82620003c2565b9050919050565b60006200040382620003e2565b9050919050565b6200041581620003f6565b81146200042157600080fd5b50565b60008151905062000435816200040a565b92915050565b6200044681620003e2565b81146200045257600080fd5b50565b60008151905062000466816200043b565b92915050565b60008060408385031215620004865762000485620003bd565b5b6000620004968582860162000424565b9250506020620004a98582860162000455565b9150509250929050565b620004be81620003e2565b82525050565b6000602082019050620004db6000830184620004b3565b92915050565b61270380620004f16000396000f3fe608060405234801561001057600080fd5b50600436106101c45760003560e01c8063715018a6116100f9578063a217fddf11610097578063ce18586d11610071578063ce18586d146104ac578063d547741f146104ca578063eceab5c5146104e6578063f2fde38b14610504576101c4565b8063a217fddf1461043f578063a6ef79b41461045d578063b366616f14610490576101c4565b80638da5cb5b116100d35780638da5cb5b146103b557806391d14854146103d35780639588e614146104035780639e42ff9014610421576101c4565b8063715018a61461039757806381613f25146103a15780638a6e0169146103ab576101c4565b80632f2ff15d1161016657806338b7f4461161014057806338b7f4461461030f578063527a52c81461032d5780635e6a4fb014610349578063669004f914610367576101c4565b80632f2ff15d146102b95780632f41ffd0146102d557806336568abe146102f3576101c4565b8063248a9ca3116101a2578063248a9ca31461023557806326ba78981461026557806329918899146102815780632e1a7d4d1461029d576101c4565b806301ffc9a7146101c957806316317c21146101f957806319cb170c14610217575b600080fd5b6101e360048036038101906101de91906119db565b610520565b6040516101f09190611a23565b60405180910390f35b61020161059a565b60405161020e9190611a57565b60405180910390f35b61021f6105a0565b60405161022c9190611a57565b60405180910390f35b61024f600480360381019061024a9190611aa8565b6105a6565b60405161025c9190611ae4565b60405180910390f35b61027f600480360381019061027a9190611b5d565b6105c6565b005b61029b60048036038101906102969190611bc8565b6106dd565b005b6102b760048036038101906102b29190611c21565b6107cf565b005b6102d360048036038101906102ce9190611c4e565b61092c565b005b6102dd61094e565b6040516102ea9190611a57565b60405180910390f35b61030d60048036038101906103089190611c4e565b610954565b005b6103176109cf565b6040516103249190611ae4565b60405180910390f35b61034760048036038101906103429190611b5d565b6109f3565b005b610351610ab7565b60405161035e9190611ca7565b60405180910390f35b610381600480360381019061037c9190611c21565b610abd565b60405161038e9190611d21565b60405180910390f35b61039f610afb565b005b6103a9610b0f565b005b6103b3610c48565b005b6103bd6110a1565b6040516103ca9190611d4b565b60405180910390f35b6103ed60048036038101906103e89190611c4e565b6110ca565b6040516103fa9190611a23565b60405180910390f35b61040b611135565b6040516104189190611a57565b60405180910390f35b61042961113b565b6040516104369190611d4b565b60405180910390f35b610447611161565b6040516104549190611ae4565b60405180910390f35b61047760048036038101906104729190611c21565b611168565b6040516104879493929190611df6565b60405180910390f35b6104aa60048036038101906104a59190611c21565b611220565b005b6104b461122a565b6040516104c19190611a57565b60405180910390f35b6104e460048036038101906104df9190611c4e565b611230565b005b6104ee611252565b6040516104fb9190611a57565b60405180910390f35b61051e60048036038101906105199190611b5d565b611258565b005b60007f7965db0b000000000000000000000000000000000000000000000000000000007bffffffffffffffffffffffffffffffffffffffffffffffffffffffff1916827bffffffffffffffffffffffffffffffffffffffffffffffffffffffff191614806105935750610592826112de565b5b9050919050565b600f5481565b600b5481565b600060026000838152602001908152602001600020600101549050919050565b6105f77f899bd46557473cb80307a9dabc297131ced39608330a2d29b2d52b660c03923e6105f2611348565b6110ca565b610636576040517f08c379a000000000000000000000000000000000000000000000000000000000815260040161062d90611e8e565b60405180910390fd5b80600860006101000a81548173ffffffffffffffffffffffffffffffffffffffff021916908373ffffffffffffffffffffffffffffffffffffffff160217905550600860009054906101000a900473ffffffffffffffffffffffffffffffffffffffff16600660006101000a81548173ffffffffffffffffffffffffffffffffffffffff021916908373ffffffffffffffffffffffffffffffffffffffff16021790555050565b6106e5611350565b6107167f899bd46557473cb80307a9dabc297131ced39608330a2d29b2d52b660c03923e610711611348565b6110ca565b610755576040517f08c379a000000000000000000000000000000000000000000000000000000000815260040161074c90611e8e565b60405180910390fd5b8060036000600f54815260200190815260200160002060000160006101000a81548173ffffffffffffffffffffffffffffffffffffffff021916908373ffffffffffffffffffffffffffffffffffffffff160217905550600f60008154809291906107bf90611edd565b91905055506107cc611396565b50565b6107d7611350565b6108087f899bd46557473cb80307a9dabc297131ced39608330a2d29b2d52b660c03923e610803611348565b6110ca565b610847576040517f08c379a000000000000000000000000000000000000000000000000000000000815260040161083e90611f97565b60405180910390fd5b600560009054906101000a900473ffffffffffffffffffffffffffffffffffffffff1673ffffffffffffffffffffffffffffffffffffffff1663a9059cbb33836040518363ffffffff1660e01b81526004016108a4929190611fb7565b6020604051808303816000875af11580156108c3573d6000803e3d6000fd5b505050506040513d601f19601f820116820180604052508101906108e7919061200c565b507f56ca301a9219608c91e7bcee90e083c19671d2cdcc96752c7af291cee5f9c8c84282604051610919929190612039565b60405180910390a1610929611396565b50565b610935826105a6565b61093e8161139f565b61094883836113b3565b50505050565b600a5481565b61095c611348565b73ffffffffffffffffffffffffffffffffffffffff168173ffffffffffffffffffffffffffffffffffffffff16146109c0576040517f6697b23200000000000000000000000000000000000000000000000000000000815260040160405180910390fd5b6109ca82826114a5565b505050565b7f899bd46557473cb80307a9dabc297131ced39608330a2d29b2d52b660c03923e81565b6109fb611350565b610a2c7f899bd46557473cb80307a9dabc297131ced39608330a2d29b2d52b660c03923e610a27611348565b6110ca565b610a6b576040517f08c379a0000000000000000000000000000000000000000000000000000000008152600401610a6290611e8e565b60405180910390fd5b80600760006101000a81548173ffffffffffffffffffffffffffffffffffffffff021916908373ffffffffffffffffffffffffffffffffffffffff160217905550610ab4611396565b50565b600e5481565b60036020528060005260406000206000915090508060000160009054906101000a900473ffffffffffffffffffffffffffffffffffffffff16905081565b610b03611598565b610b0d600061161f565b565b610b17611350565b610b487f899bd46557473cb80307a9dabc297131ced39608330a2d29b2d52b660c03923e610b43611348565b6110ca565b610b87576040517f08c379a0000000000000000000000000000000000000000000000000000000008152600401610b7e906120d4565b60405180910390fd5b6000600660009054906101000a900473ffffffffffffffffffffffffffffffffffffffff1673ffffffffffffffffffffffffffffffffffffffff1663feaf968c6040518163ffffffff1660e01b815260040160a060405180830381865afa158015610bf6573d6000803e3d6000fd5b505050506040513d601f19601f82011682018060405250810190610c1a9190612177565b50505091505060006402540be40082610c3391906121f2565b905080600e819055505050610c46611396565b565b610c50611350565b610c817f899bd46557473cb80307a9dabc297131ced39608330a2d29b2d52b660c03923e610c7c611348565b6110ca565b610cc0576040517f08c379a0000000000000000000000000000000000000000000000000000000008152600401610cb790611e8e565b60405180910390fd5b6000610cca6116e3565b90506001151581151503611096576000600e54600d54610cea919061226a565b670de0b6b3a7640000600c54610d00919061226a565b610d0a91906122ac565b90506000670de0b6b3a764000082610d22919061230f565b9050600560009054906101000a900473ffffffffffffffffffffffffffffffffffffffff1673ffffffffffffffffffffffffffffffffffffffff166318160ddd6040518163ffffffff1660e01b8152600401602060405180830381865afa158015610d91573d6000803e3d6000fd5b505050506040513d601f19601f82011682018060405250810190610db59190612340565b600981905550600954811015610ede57600081600954610dd5919061236d565b9050600560009054906101000a900473ffffffffffffffffffffffffffffffffffffffff1673ffffffffffffffffffffffffffffffffffffffff166342966c68826040518263ffffffff1660e01b8152600401610e329190611a57565b600060405180830381600087803b158015610e4c57600080fd5b505af1158015610e60573d6000803e3d6000fd5b505050506040518060400160405280600481526020017f4275726e0000000000000000000000000000000000000000000000000000000081525060046000600a5481526020019081526020016000206000019081610ebe91906125d2565b508060046000600a54815260200190815260200160002060010181905550505b60095481111561100157600060095482610ef8919061236d565b9050600560009054906101000a900473ffffffffffffffffffffffffffffffffffffffff1673ffffffffffffffffffffffffffffffffffffffff1663a0712d68826040518263ffffffff1660e01b8152600401610f559190611a57565b600060405180830381600087803b158015610f6f57600080fd5b505af1158015610f83573d6000803e3d6000fd5b505050506040518060400160405280600481526020017f4d696e740000000000000000000000000000000000000000000000000000000081525060046000600a5481526020019081526020016000206000019081610fe191906125d2565b508060046000600a54815260200190815260200160002060010181905550505b806009819055504360046000600a548152602001908152602001600020600301819055504260046000600a54815260200190815260200160002060020181905550600a600081548092919061105590611edd565b91905055507f2a6a493f767ec856dcac2f52ecc7e244b432c2d615092ef532c22a94568ed995428260405161108b929190612039565b60405180910390a150505b5061109f611396565b565b60008060009054906101000a900473ffffffffffffffffffffffffffffffffffffffff16905090565b60006002600084815260200190815260200160002060000160008373ffffffffffffffffffffffffffffffffffffffff1673ffffffffffffffffffffffffffffffffffffffff16815260200190815260200160002060009054906101000a900460ff16905092915050565b600c5481565b600860009054906101000a900473ffffffffffffffffffffffffffffffffffffffff1681565b6000801b81565b600460205280600052604060002060009150905080600001805461118b906123ff565b80601f01602080910402602001604051908101604052809291908181526020018280546111b7906123ff565b80156112045780601f106111d957610100808354040283529160200191611204565b820191906000526020600020905b8154815290600101906020018083116111e757829003601f168201915b5050505050908060010154908060020154908060030154905084565b8060098190555050565b60095481565b611239826105a6565b6112428161139f565b61124c83836114a5565b50505050565b600d5481565b611260611598565b600073ffffffffffffffffffffffffffffffffffffffff168173ffffffffffffffffffffffffffffffffffffffff16036112d25760006040517f1e4fbdf70000000000000000000000000000000000000000000000000000000081526004016112c99190611d4b565b60405180910390fd5b6112db8161161f565b50565b60007f01ffc9a7000000000000000000000000000000000000000000000000000000007bffffffffffffffffffffffffffffffffffffffffffffffffffffffff1916827bffffffffffffffffffffffffffffffffffffffffffffffffffffffff1916149050919050565b600033905090565b60026001540361138c576040517f3ee5aeb500000000000000000000000000000000000000000000000000000000815260040160405180910390fd5b6002600181905550565b60018081905550565b6113b0816113ab611348565b61192d565b50565b60006113bf83836110ca565b61149a5760016002600085815260200190815260200160002060000160008473ffffffffffffffffffffffffffffffffffffffff1673ffffffffffffffffffffffffffffffffffffffff16815260200190815260200160002060006101000a81548160ff021916908315150217905550611437611348565b73ffffffffffffffffffffffffffffffffffffffff168273ffffffffffffffffffffffffffffffffffffffff16847f2f8788117e7eff1d82e926ec794901d17c78024a50270940304540a733656f0d60405160405180910390a46001905061149f565b600090505b92915050565b60006114b183836110ca565b1561158d5760006002600085815260200190815260200160002060000160008473ffffffffffffffffffffffffffffffffffffffff1673ffffffffffffffffffffffffffffffffffffffff16815260200190815260200160002060006101000a81548160ff02191690831515021790555061152a611348565b73ffffffffffffffffffffffffffffffffffffffff168273ffffffffffffffffffffffffffffffffffffffff16847ff6391f5c32d9c69d2a47ea670b442974b53935d1edc7fd64eb21e047a839171b60405160405180910390a460019050611592565b600090505b92915050565b6115a0611348565b73ffffffffffffffffffffffffffffffffffffffff166115be6110a1565b73ffffffffffffffffffffffffffffffffffffffff161461161d576115e1611348565b6040517f118cdaa70000000000000000000000000000000000000000000000000000000081526004016116149190611d4b565b60405180910390fd5b565b60008060009054906101000a900473ffffffffffffffffffffffffffffffffffffffff169050816000806101000a81548173ffffffffffffffffffffffffffffffffffffffff021916908373ffffffffffffffffffffffffffffffffffffffff1602179055508173ffffffffffffffffffffffffffffffffffffffff168173ffffffffffffffffffffffffffffffffffffffff167f8be0079c531659141344cd1fd0a4f28419497f9722a3daafe3b4186f6b6457e060405160405180910390a35050565b60006117167f899bd46557473cb80307a9dabc297131ced39608330a2d29b2d52b660c03923e611711611348565b6110ca565b611755576040517f08c379a000000000000000000000000000000000000000000000000000000000815260040161174c90611e8e565b60405180910390fd5b60006003600080815260200190815260200160002060000160009054906101000a900473ffffffffffffffffffffffffffffffffffffffff1673ffffffffffffffffffffffffffffffffffffffff166370a08231600760009054906101000a900473ffffffffffffffffffffffffffffffffffffffff166040518263ffffffff1660e01b81526004016117e89190611d4b565b602060405180830381865afa158015611805573d6000803e3d6000fd5b505050506040513d601f19601f820116820180604052508101906118299190612340565b90506000600360006001815260200190815260200160002060000160009054906101000a900473ffffffffffffffffffffffffffffffffffffffff1673ffffffffffffffffffffffffffffffffffffffff166370a08231600760009054906101000a900473ffffffffffffffffffffffffffffffffffffffff166040518263ffffffff1660e01b81526004016118bf9190611d4b565b602060405180830381865afa1580156118dc573d6000803e3d6000fd5b505050506040513d601f19601f820116820180604052508101906119009190612340565b9050600c5482146119135781600c819055505b600c5481146119245780600d819055505b60019250505090565b61193782826110ca565b61197a5780826040517fe2517d3f0000000000000000000000000000000000000000000000000000000081526004016119719291906126a4565b60405180910390fd5b5050565b600080fd5b60007fffffffff0000000000000000000000000000000000000000000000000000000082169050919050565b6119b881611983565b81146119c357600080fd5b50565b6000813590506119d5816119af565b92915050565b6000602082840312156119f1576119f061197e565b5b60006119ff848285016119c6565b91505092915050565b60008115159050919050565b611a1d81611a08565b82525050565b6000602082019050611a386000830184611a14565b92915050565b6000819050919050565b611a5181611a3e565b82525050565b6000602082019050611a6c6000830184611a48565b92915050565b6000819050919050565b611a8581611a72565b8114611a9057600080fd5b50565b600081359050611aa281611a7c565b92915050565b600060208284031215611abe57611abd61197e565b5b6000611acc84828501611a93565b91505092915050565b611ade81611a72565b82525050565b6000602082019050611af96000830184611ad5565b92915050565b600073ffffffffffffffffffffffffffffffffffffffff82169050919050565b6000611b2a82611aff565b9050919050565b611b3a81611b1f565b8114611b4557600080fd5b50565b600081359050611b5781611b31565b92915050565b600060208284031215611b7357611b7261197e565b5b6000611b8184828501611b48565b91505092915050565b6000611b9582611b1f565b9050919050565b611ba581611b8a565b8114611bb057600080fd5b50565b600081359050611bc281611b9c565b92915050565b600060208284031215611bde57611bdd61197e565b5b6000611bec84828501611bb3565b91505092915050565b611bfe81611a3e565b8114611c0957600080fd5b50565b600081359050611c1b81611bf5565b92915050565b600060208284031215611c3757611c3661197e565b5b6000611c4584828501611c0c565b91505092915050565b60008060408385031215611c6557611c6461197e565b5b6000611c7385828601611a93565b9250506020611c8485828601611b48565b9150509250929050565b6000819050919050565b611ca181611c8e565b82525050565b6000602082019050611cbc6000830184611c98565b92915050565b6000819050919050565b6000611ce7611ce2611cdd84611aff565b611cc2565b611aff565b9050919050565b6000611cf982611ccc565b9050919050565b6000611d0b82611cee565b9050919050565b611d1b81611d00565b82525050565b6000602082019050611d366000830184611d12565b92915050565b611d4581611b1f565b82525050565b6000602082019050611d606000830184611d3c565b92915050565b600081519050919050565b600082825260208201905092915050565b60005b83811015611da0578082015181840152602081019050611d85565b60008484015250505050565b6000601f19601f8301169050919050565b6000611dc882611d66565b611dd28185611d71565b9350611de2818560208601611d82565b611deb81611dac565b840191505092915050565b60006080820190508181036000830152611e108187611dbd565b9050611e1f6020830186611a48565b611e2c6040830185611a48565b611e396060830184611a48565b95945050505050565b7f4e6f7420616c6c6f77656420746f2061636365737320746865207661756c742e600082015250565b6000611e78602083611d71565b9150611e8382611e42565b602082019050919050565b60006020820190508181036000830152611ea781611e6b565b9050919050565b7f4e487b7100000000000000000000000000000000000000000000000000000000600052601160045260246000fd5b6000611ee882611a3e565b91507fffffffffffffffffffffffffffffffffffffffffffffffffffffffffffffffff8203611f1a57611f19611eae565b5b600182019050919050565b7f4e6f7420616c6c6f77656420746f20776974686472617720557262616e65205360008201527f7461626c65636f696e2e00000000000000000000000000000000000000000000602082015250565b6000611f81602a83611d71565b9150611f8c82611f25565b604082019050919050565b60006020820190508181036000830152611fb081611f74565b9050919050565b6000604082019050611fcc6000830185611d3c565b611fd96020830184611a48565b9392505050565b611fe981611a08565b8114611ff457600080fd5b50565b60008151905061200681611fe0565b92915050565b6000602082840312156120225761202161197e565b5b600061203084828501611ff7565b91505092915050565b600060408201905061204e6000830185611a48565b61205b6020830184611a48565b9392505050565b7f4e6f7420616c6c6f77656420746f2061636365737320746865204554482f555360008201527f44207072696365206461746120666565642e0000000000000000000000000000602082015250565b60006120be603283611d71565b91506120c982612062565b604082019050919050565b600060208201905081810360008301526120ed816120b1565b9050919050565b600069ffffffffffffffffffff82169050919050565b612113816120f4565b811461211e57600080fd5b50565b6000815190506121308161210a565b92915050565b61213f81611c8e565b811461214a57600080fd5b50565b60008151905061215c81612136565b92915050565b60008151905061217181611bf5565b92915050565b600080600080600060a086880312156121935761219261197e565b5b60006121a188828901612121565b95505060206121b28882890161214d565b94505060406121c388828901612162565b93505060606121d488828901612162565b92505060806121e588828901612121565b9150509295509295909350565b60006121fd82611c8e565b915061220883611c8e565b925082820261221681611c8e565b91507f8000000000000000000000000000000000000000000000000000000000000000841460008412161561224e5761224d611eae565b5b828205841483151761226357612262611eae565b5b5092915050565b600061227582611a3e565b915061228083611a3e565b925082820261228e81611a3e565b915082820484148315176122a5576122a4611eae565b5b5092915050565b60006122b782611a3e565b91506122c283611a3e565b92508282019050808211156122da576122d9611eae565b5b92915050565b7f4e487b7100000000000000000000000000000000000000000000000000000000600052601260045260246000fd5b600061231a82611a3e565b915061232583611a3e565b925082612335576123346122e0565b5b828204905092915050565b6000602082840312156123565761235561197e565b5b600061236484828501612162565b91505092915050565b600061237882611a3e565b915061238383611a3e565b925082820390508181111561239b5761239a611eae565b5b92915050565b7f4e487b7100000000000000000000000000000000000000000000000000000000600052604160045260246000fd5b7f4e487b7100000000000000000000000000000000000000000000000000000000600052602260045260246000fd5b6000600282049050600182168061241757607f821691505b60208210810361242a576124296123d0565b5b50919050565b60008190508160005260206000209050919050565b60006020601f8301049050919050565b600082821b905092915050565b6000600883026124927fffffffffffffffffffffffffffffffffffffffffffffffffffffffffffffffff82612455565b61249c8683612455565b95508019841693508086168417925050509392505050565b60006124cf6124ca6124c584611a3e565b611cc2565b611a3e565b9050919050565b6000819050919050565b6124e9836124b4565b6124fd6124f5826124d6565b848454612462565b825550505050565b600090565b612512612505565b61251d8184846124e0565b505050565b5b818110156125415761253660008261250a565b600181019050612523565b5050565b601f8211156125865761255781612430565b61256084612445565b8101602085101561256f578190505b61258361257b85612445565b830182612522565b50505b505050565b600082821c905092915050565b60006125a96000198460080261258b565b1980831691505092915050565b60006125c28383612598565b9150826002028217905092915050565b6125db82611d66565b67ffffffffffffffff8111156125f4576125f36123a1565b5b6125fe82546123ff565b612609828285612545565b600060209050601f83116001811461263c576000841561262a578287015190505b61263485826125b6565b86555061269c565b601f19841661264a86612430565b60005b828110156126725784890151825560018201915060208501945060208101905061264d565b8683101561268f578489015161268b601f891682612598565b8355505b6001600288020188555050505b505050505050565b60006040820190506126b96000830185611d3c565b6126c66020830184611ad5565b939250505056fea26469706673582212206075217561d8c4eac50868add66183d150db1d76ca77812dc622ea1bb043776064736f6c63430008180033",
  "linkReferences": {},
  "deployedLinkReferences": {}
}