{
  "_format": "hh-sol-artifact-1",
  "contractName": "UrbaneReserve",
  "sourceName": "contracts/UrbaneReserve.sol",
  "abi": [
    {
      "inputs": [
        {
          "internalType": "address",
          "name": "initialOwner",
          "type": "address"
        }
      ],
      "stateMutability": "nonpayable",
      "type": "constructor"
    },
    {
      "inputs": [],
      "name": "AccessControlBadConfirmation",
      "type": "error"
    },
    {
      "inputs": [
        {
          "internalType": "address",
          "name": "account",
          "type": "address"
        },
        {
          "internalType": "bytes32",
          "name": "neededRole",
          "type": "bytes32"
        }
      ],
      "name": "AccessControlUnauthorizedAccount",
      "type": "error"
    },
    {
      "inputs": [
        {
          "internalType": "address",
          "name": "owner",
          "type": "address"
        }
      ],
      "name": "OwnableInvalidOwner",
      "type": "error"
    },
    {
      "inputs": [
        {
          "internalType": "address",
          "name": "account",
          "type": "address"
        }
      ],
      "name": "OwnableUnauthorizedAccount",
      "type": "error"
    },
    {
      "inputs": [],
      "name": "ReentrancyGuardReentrantCall",
      "type": "error"
    },
    {
      "anonymous": false,
      "inputs": [
        {
          "indexed": true,
          "internalType": "uint256",
          "name": "vid",
          "type": "uint256"
        },
        {
          "indexed": false,
          "internalType": "uint256",
          "name": "amount",
          "type": "uint256"
        }
      ],
      "name": "Deposit",
      "type": "event"
    },
    {
      "anonymous": false,
      "inputs": [
        {
          "indexed": true,
          "internalType": "address",
          "name": "previousOwner",
          "type": "address"
        },
        {
          "indexed": true,
          "internalType": "address",
          "name": "newOwner",
          "type": "address"
        }
      ],
      "name": "OwnershipTransferred",
      "type": "event"
    },
    {
      "anonymous": false,
      "inputs": [
        {
          "indexed": true,
          "internalType": "bytes32",
          "name": "role",
          "type": "bytes32"
        },
        {
          "indexed": true,
          "internalType": "bytes32",
          "name": "previousAdminRole",
          "type": "bytes32"
        },
        {
          "indexed": true,
          "internalType": "bytes32",
          "name": "newAdminRole",
          "type": "bytes32"
        }
      ],
      "name": "RoleAdminChanged",
      "type": "event"
    },
    {
      "anonymous": false,
      "inputs": [
        {
          "indexed": true,
          "internalType": "bytes32",
          "name": "role",
          "type": "bytes32"
        },
        {
          "indexed": true,
          "internalType": "address",
          "name": "account",
          "type": "address"
        },
        {
          "indexed": true,
          "internalType": "address",
          "name": "sender",
          "type": "address"
        }
      ],
      "name": "RoleGranted",
      "type": "event"
    },
    {
      "anonymous": false,
      "inputs": [
        {
          "indexed": true,
          "internalType": "bytes32",
          "name": "role",
          "type": "bytes32"
        },
        {
          "indexed": true,
          "internalType": "address",
          "name": "account",
          "type": "address"
        },
        {
          "indexed": true,
          "internalType": "address",
          "name": "sender",
          "type": "address"
        }
      ],
      "name": "RoleRevoked",
      "type": "event"
    },
    {
      "anonymous": false,
      "inputs": [
        {
          "indexed": true,
          "internalType": "uint256",
          "name": "vid",
          "type": "uint256"
        },
        {
          "indexed": false,
          "internalType": "uint256",
          "name": "amount",
          "type": "uint256"
        }
      ],
      "name": "Withdraw",
      "type": "event"
    },
    {
      "inputs": [],
      "name": "DEFAULT_ADMIN_ROLE",
      "outputs": [
        {
          "internalType": "bytes32",
          "name": "",
          "type": "bytes32"
        }
      ],
      "stateMutability": "view",
      "type": "function"
    },
    {
      "inputs": [],
      "name": "MANAGER_ROLE",
      "outputs": [
        {
          "internalType": "bytes32",
          "name": "",
          "type": "bytes32"
        }
      ],
      "stateMutability": "view",
      "type": "function"
    },
    {
      "inputs": [
        {
          "internalType": "uint256",
          "name": "",
          "type": "uint256"
        }
      ],
      "name": "_rsvVault",
      "outputs": [
        {
          "internalType": "contract IERC20",
          "name": "collateral",
          "type": "address"
        },
        {
          "internalType": "uint256",
          "name": "amount",
          "type": "uint256"
        }
      ],
      "stateMutability": "view",
      "type": "function"
    },
    {
      "inputs": [
        {
          "internalType": "contract IERC20",
          "name": "_collateral",
          "type": "address"
        }
      ],
      "name": "addReserveVault",
      "outputs": [],
      "stateMutability": "nonpayable",
      "type": "function"
    },
    {
      "inputs": [],
      "name": "currentReserveId",
      "outputs": [
        {
          "internalType": "uint256",
          "name": "",
          "type": "uint256"
        }
      ],
      "stateMutability": "view",
      "type": "function"
    },
    {
      "inputs": [
        {
          "internalType": "uint256",
          "name": "vid",
          "type": "uint256"
        },
        {
          "internalType": "uint256",
          "name": "amount",
          "type": "uint256"
        }
      ],
      "name": "depositCollateral",
      "outputs": [],
      "stateMutability": "nonpayable",
      "type": "function"
    },
    {
      "inputs": [
        {
          "internalType": "bytes32",
          "name": "role",
          "type": "bytes32"
        }
      ],
      "name": "getRoleAdmin",
      "outputs": [
        {
          "internalType": "bytes32",
          "name": "",
          "type": "bytes32"
        }
      ],
      "stateMutability": "view",
      "type": "function"
    },
    {
      "inputs": [
        {
          "internalType": "bytes32",
          "name": "role",
          "type": "bytes32"
        },
        {
          "internalType": "address",
          "name": "account",
          "type": "address"
        }
      ],
      "name": "grantRole",
      "outputs": [],
      "stateMutability": "nonpayable",
      "type": "function"
    },
    {
      "inputs": [
        {
          "internalType": "bytes32",
          "name": "role",
          "type": "bytes32"
        },
        {
          "internalType": "address",
          "name": "account",
          "type": "address"
        }
      ],
      "name": "hasRole",
      "outputs": [
        {
          "internalType": "bool",
          "name": "",
          "type": "bool"
        }
      ],
      "stateMutability": "view",
      "type": "function"
    },
    {
      "inputs": [],
      "name": "owner",
      "outputs": [
        {
          "internalType": "address",
          "name": "",
          "type": "address"
        }
      ],
      "stateMutability": "view",
      "type": "function"
    },
    {
      "inputs": [],
      "name": "renounceOwnership",
      "outputs": [],
      "stateMutability": "nonpayable",
      "type": "function"
    },
    {
      "inputs": [
        {
          "internalType": "bytes32",
          "name": "role",
          "type": "bytes32"
        },
        {
          "internalType": "address",
          "name": "callerConfirmation",
          "type": "address"
        }
      ],
      "name": "renounceRole",
      "outputs": [],
      "stateMutability": "nonpayable",
      "type": "function"
    },
    {
      "inputs": [
        {
          "internalType": "bytes32",
          "name": "role",
          "type": "bytes32"
        },
        {
          "internalType": "address",
          "name": "account",
          "type": "address"
        }
      ],
      "name": "revokeRole",
      "outputs": [],
      "stateMutability": "nonpayable",
      "type": "function"
    },
    {
      "inputs": [
        {
          "internalType": "bytes4",
          "name": "interfaceId",
          "type": "bytes4"
        }
      ],
      "name": "supportsInterface",
      "outputs": [
        {
          "internalType": "bool",
          "name": "",
          "type": "bool"
        }
      ],
      "stateMutability": "view",
      "type": "function"
    },
    {
      "inputs": [
        {
          "internalType": "address",
          "name": "newOwner",
          "type": "address"
        }
      ],
      "name": "transferOwnership",
      "outputs": [],
      "stateMutability": "nonpayable",
      "type": "function"
    },
    {
      "inputs": [
        {
          "internalType": "uint256",
          "name": "vid",
          "type": "uint256"
        },
        {
          "internalType": "uint256",
          "name": "amount",
          "type": "uint256"
        }
      ],
      "name": "withdrawCollateral",
      "outputs": [],
      "stateMutability": "nonpayable",
      "type": "function"
    }
  ],
  "bytecode": "0x60806040523480156200001157600080fd5b5060405162001a6938038062001a698339818101604052810190620000379190620003d9565b80600073ffffffffffffffffffffffffffffffffffffffff168173ffffffffffffffffffffffffffffffffffffffff1603620000ad5760006040517f1e4fbdf7000000000000000000000000000000000000000000000000000000008152600401620000a491906200041c565b60405180910390fd5b620000be816200013460201b60201c565b5060018081905550620000ea6000801b620000de620001f860201b60201c565b6200020060201b60201c565b506200012c7f241ecf16d79d0f8dbfb92cbc07fe17840425976cf0667f022fe9877caa831b0862000120620001f860201b60201c565b6200020060201b60201c565b505062000439565b60008060009054906101000a900473ffffffffffffffffffffffffffffffffffffffff169050816000806101000a81548173ffffffffffffffffffffffffffffffffffffffff021916908373ffffffffffffffffffffffffffffffffffffffff1602179055508173ffffffffffffffffffffffffffffffffffffffff168173ffffffffffffffffffffffffffffffffffffffff167f8be0079c531659141344cd1fd0a4f28419497f9722a3daafe3b4186f6b6457e060405160405180910390a35050565b600033905090565b60006200021483836200030460201b60201c565b620002f95760016002600085815260200190815260200160002060000160008473ffffffffffffffffffffffffffffffffffffffff1673ffffffffffffffffffffffffffffffffffffffff16815260200190815260200160002060006101000a81548160ff02191690831515021790555062000295620001f860201b60201c565b73ffffffffffffffffffffffffffffffffffffffff168273ffffffffffffffffffffffffffffffffffffffff16847f2f8788117e7eff1d82e926ec794901d17c78024a50270940304540a733656f0d60405160405180910390a460019050620002fe565b600090505b92915050565b60006002600084815260200190815260200160002060000160008373ffffffffffffffffffffffffffffffffffffffff1673ffffffffffffffffffffffffffffffffffffffff16815260200190815260200160002060009054906101000a900460ff16905092915050565b600080fd5b600073ffffffffffffffffffffffffffffffffffffffff82169050919050565b6000620003a18262000374565b9050919050565b620003b38162000394565b8114620003bf57600080fd5b50565b600081519050620003d381620003a8565b92915050565b600060208284031215620003f257620003f16200036f565b5b60006200040284828501620003c2565b91505092915050565b620004168162000394565b82525050565b60006020820190506200043360008301846200040b565b92915050565b61162080620004496000396000f3fe608060405234801561001057600080fd5b50600436106101005760003560e01c8063767a7b0511610097578063d547741f11610066578063d547741f1461029a578063ec87621c146102b6578063ece13732146102d4578063f2fde38b146102f057610100565b8063767a7b05146102125780638da5cb5b1461022e57806391d148541461024c578063a217fddf1461027c57610100565b806336568abe116100d357806336568abe146101b25780633b61f098146101ce5780635306f102146101ea578063715018a61461020857610100565b806301ffc9a714610105578063248a9ca314610135578063279ba28d146101655780632f2ff15d14610196575b600080fd5b61011f600480360381019061011a9190610f75565b61030c565b60405161012c9190610fbd565b60405180910390f35b61014f600480360381019061014a919061100e565b610386565b60405161015c919061104a565b60405180910390f35b61017f600480360381019061017a919061109b565b6103a6565b60405161018d929190611156565b60405180910390f35b6101b060048036038101906101ab91906111bd565b6103ea565b005b6101cc60048036038101906101c791906111bd565b61040c565b005b6101e860048036038101906101e3919061123b565b610487565b005b6101f2610572565b6040516101ff9190611268565b60405180910390f35b610210610578565b005b61022c60048036038101906102279190611283565b61058c565b005b61023661073d565b60405161024391906112d2565b60405180910390f35b610266600480360381019061026191906111bd565b610766565b6040516102739190610fbd565b60405180910390f35b6102846107d1565b604051610291919061104a565b60405180910390f35b6102b460048036038101906102af91906111bd565b6107d8565b005b6102be6107fa565b6040516102cb919061104a565b60405180910390f35b6102ee60048036038101906102e99190611283565b61081e565b005b61030a600480360381019061030591906112ed565b6109c9565b005b60007f7965db0b000000000000000000000000000000000000000000000000000000007bffffffffffffffffffffffffffffffffffffffffffffffffffffffff1916827bffffffffffffffffffffffffffffffffffffffffffffffffffffffff1916148061037f575061037e82610a4f565b5b9050919050565b600060026000838152602001908152602001600020600101549050919050565b60046020528060005260406000206000915090508060000160009054906101000a900473ffffffffffffffffffffffffffffffffffffffff16908060010154905082565b6103f382610386565b6103fc81610ab9565b6104068383610acd565b50505050565b610414610bbf565b73ffffffffffffffffffffffffffffffffffffffff168173ffffffffffffffffffffffffffffffffffffffff1614610478576040517f6697b23200000000000000000000000000000000000000000000000000000000815260040160405180910390fd5b6104828282610bc7565b505050565b6104b87f241ecf16d79d0f8dbfb92cbc07fe17840425976cf0667f022fe9877caa831b086104b3610bbf565b610766565b6104f7576040517f08c379a00000000000000000000000000000000000000000000000000000000081526004016104ee90611377565b60405180910390fd5b61050081610cba565b8060046000600354815260200190815260200160002060000160006101000a81548173ffffffffffffffffffffffffffffffffffffffff021916908373ffffffffffffffffffffffffffffffffffffffff1602179055506003600081548092919061056a906113c6565b919050555050565b60035481565b610580610d7c565b61058a6000610e03565b565b6105bd7f241ecf16d79d0f8dbfb92cbc07fe17840425976cf0667f022fe9877caa831b086105b8610bbf565b610766565b6105fc576040517f08c379a00000000000000000000000000000000000000000000000000000000081526004016105f390611377565b60405180910390fd5b60006004600084815260200190815260200160002060000160009054906101000a900473ffffffffffffffffffffffffffffffffffffffff169050600060046000858152602001908152602001600020600101549050828110610737578173ffffffffffffffffffffffffffffffffffffffff1663a9059cbb33856040518363ffffffff1660e01b815260040161069492919061140e565b6020604051808303816000875af11580156106b3573d6000803e3d6000fd5b505050506040513d601f19601f820116820180604052508101906106d79190611463565b5082816106e49190611490565b6004600086815260200190815260200160002060010181905550837f56ca301a9219608c91e7bcee90e083c19671d2cdcc96752c7af291cee5f9c8c88460405161072e9190611268565b60405180910390a25b50505050565b60008060009054906101000a900473ffffffffffffffffffffffffffffffffffffffff16905090565b60006002600084815260200190815260200160002060000160008373ffffffffffffffffffffffffffffffffffffffff1673ffffffffffffffffffffffffffffffffffffffff16815260200190815260200160002060009054906101000a900460ff16905092915050565b6000801b81565b6107e182610386565b6107ea81610ab9565b6107f48383610bc7565b50505050565b7f241ecf16d79d0f8dbfb92cbc07fe17840425976cf0667f022fe9877caa831b0881565b61084f7f241ecf16d79d0f8dbfb92cbc07fe17840425976cf0667f022fe9877caa831b0861084a610bbf565b610766565b61088e576040517f08c379a000000000000000000000000000000000000000000000000000000000815260040161088590611377565b60405180910390fd5b60006004600084815260200190815260200160002060000160009054906101000a900473ffffffffffffffffffffffffffffffffffffffff1690508073ffffffffffffffffffffffffffffffffffffffff166323b872dd3330856040518463ffffffff1660e01b8152600401610906939291906114c4565b6020604051808303816000875af1158015610925573d6000803e3d6000fd5b505050506040513d601f19601f820116820180604052508101906109499190611463565b50600060046000858152602001908152602001600020600101549050828161097191906114fb565b6004600086815260200190815260200160002060010181905550837fa3af609bf46297028ce551832669030f9effef2b02606d02cbbcc40fe6b47c55846040516109bb9190611268565b60405180910390a250505050565b6109d1610d7c565b600073ffffffffffffffffffffffffffffffffffffffff168173ffffffffffffffffffffffffffffffffffffffff1603610a435760006040517f1e4fbdf7000000000000000000000000000000000000000000000000000000008152600401610a3a91906112d2565b60405180910390fd5b610a4c81610e03565b50565b60007f01ffc9a7000000000000000000000000000000000000000000000000000000007bffffffffffffffffffffffffffffffffffffffffffffffffffffffff1916827bffffffffffffffffffffffffffffffffffffffffffffffffffffffff1916149050919050565b610aca81610ac5610bbf565b610ec7565b50565b6000610ad98383610766565b610bb45760016002600085815260200190815260200160002060000160008473ffffffffffffffffffffffffffffffffffffffff1673ffffffffffffffffffffffffffffffffffffffff16815260200190815260200160002060006101000a81548160ff021916908315150217905550610b51610bbf565b73ffffffffffffffffffffffffffffffffffffffff168273ffffffffffffffffffffffffffffffffffffffff16847f2f8788117e7eff1d82e926ec794901d17c78024a50270940304540a733656f0d60405160405180910390a460019050610bb9565b600090505b92915050565b600033905090565b6000610bd38383610766565b15610caf5760006002600085815260200190815260200160002060000160008473ffffffffffffffffffffffffffffffffffffffff1673ffffffffffffffffffffffffffffffffffffffff16815260200190815260200160002060006101000a81548160ff021916908315150217905550610c4c610bbf565b73ffffffffffffffffffffffffffffffffffffffff168273ffffffffffffffffffffffffffffffffffffffff16847ff6391f5c32d9c69d2a47ea670b442974b53935d1edc7fd64eb21e047a839171b60405160405180910390a460019050610cb4565b600090505b92915050565b60005b600354811015610d78578173ffffffffffffffffffffffffffffffffffffffff166004600083815260200190815260200160002060000160009054906101000a900473ffffffffffffffffffffffffffffffffffffffff1673ffffffffffffffffffffffffffffffffffffffff1603610d6b576040517f08c379a0000000000000000000000000000000000000000000000000000000008152600401610d62906115a1565b60405180910390fd5b8080600101915050610cbd565b5050565b610d84610bbf565b73ffffffffffffffffffffffffffffffffffffffff16610da261073d565b73ffffffffffffffffffffffffffffffffffffffff1614610e0157610dc5610bbf565b6040517f118cdaa7000000000000000000000000000000000000000000000000000000008152600401610df891906112d2565b60405180910390fd5b565b60008060009054906101000a900473ffffffffffffffffffffffffffffffffffffffff169050816000806101000a81548173ffffffffffffffffffffffffffffffffffffffff021916908373ffffffffffffffffffffffffffffffffffffffff1602179055508173ffffffffffffffffffffffffffffffffffffffff168173ffffffffffffffffffffffffffffffffffffffff167f8be0079c531659141344cd1fd0a4f28419497f9722a3daafe3b4186f6b6457e060405160405180910390a35050565b610ed18282610766565b610f145780826040517fe2517d3f000000000000000000000000000000000000000000000000000000008152600401610f0b9291906115c1565b60405180910390fd5b5050565b600080fd5b60007fffffffff0000000000000000000000000000000000000000000000000000000082169050919050565b610f5281610f1d565b8114610f5d57600080fd5b50565b600081359050610f6f81610f49565b92915050565b600060208284031215610f8b57610f8a610f18565b5b6000610f9984828501610f60565b91505092915050565b60008115159050919050565b610fb781610fa2565b82525050565b6000602082019050610fd26000830184610fae565b92915050565b6000819050919050565b610feb81610fd8565b8114610ff657600080fd5b50565b60008135905061100881610fe2565b92915050565b60006020828403121561102457611023610f18565b5b600061103284828501610ff9565b91505092915050565b61104481610fd8565b82525050565b600060208201905061105f600083018461103b565b92915050565b6000819050919050565b61107881611065565b811461108357600080fd5b50565b6000813590506110958161106f565b92915050565b6000602082840312156110b1576110b0610f18565b5b60006110bf84828501611086565b91505092915050565b600073ffffffffffffffffffffffffffffffffffffffff82169050919050565b6000819050919050565b600061110d611108611103846110c8565b6110e8565b6110c8565b9050919050565b600061111f826110f2565b9050919050565b600061113182611114565b9050919050565b61114181611126565b82525050565b61115081611065565b82525050565b600060408201905061116b6000830185611138565b6111786020830184611147565b9392505050565b600061118a826110c8565b9050919050565b61119a8161117f565b81146111a557600080fd5b50565b6000813590506111b781611191565b92915050565b600080604083850312156111d4576111d3610f18565b5b60006111e285828601610ff9565b92505060206111f3858286016111a8565b9150509250929050565b60006112088261117f565b9050919050565b611218816111fd565b811461122357600080fd5b50565b6000813590506112358161120f565b92915050565b60006020828403121561125157611250610f18565b5b600061125f84828501611226565b91505092915050565b600060208201905061127d6000830184611147565b92915050565b6000806040838503121561129a57611299610f18565b5b60006112a885828601611086565b92505060206112b985828601611086565b9150509250929050565b6112cc8161117f565b82525050565b60006020820190506112e760008301846112c3565b92915050565b60006020828403121561130357611302610f18565b5b6000611311848285016111a8565b91505092915050565b600082825260208201905092915050565b7f4e6f7420616c6c6f77656420746f2061636365737320746865207661756c742e600082015250565b600061136160208361131a565b915061136c8261132b565b602082019050919050565b6000602082019050818103600083015261139081611354565b9050919050565b7f4e487b7100000000000000000000000000000000000000000000000000000000600052601160045260246000fd5b60006113d182611065565b91507fffffffffffffffffffffffffffffffffffffffffffffffffffffffffffffffff820361140357611402611397565b5b600182019050919050565b600060408201905061142360008301856112c3565b6114306020830184611147565b9392505050565b61144081610fa2565b811461144b57600080fd5b50565b60008151905061145d81611437565b92915050565b60006020828403121561147957611478610f18565b5b60006114878482850161144e565b91505092915050565b600061149b82611065565b91506114a683611065565b92508282039050818111156114be576114bd611397565b5b92915050565b60006060820190506114d960008301866112c3565b6114e660208301856112c3565b6114f36040830184611147565b949350505050565b600061150682611065565b915061151183611065565b925082820190508082111561152957611528611397565b5b92915050565b7f436f6c6c61746572616c206164647265737320616c726561647920657869737460008201527f732e000000000000000000000000000000000000000000000000000000000000602082015250565b600061158b60228361131a565b91506115968261152f565b604082019050919050565b600060208201905081810360008301526115ba8161157e565b9050919050565b60006040820190506115d660008301856112c3565b6115e3602083018461103b565b939250505056fea2646970667358221220df92356da477c817fc571ef323ea5b5620b21a374ba9587a77dc37f75255be6c64736f6c63430008180033",
  "linkReferences": {},
  "deployedLinkReferences": {}
}