{
  "_format": "hh-sol-artifact-1",
  "contractName": "PriceOracle",
  "sourceName": "contracts/PriceOracle.sol",
  "abi": [
    {
      "inputs": [],
      "name": "colPriceInWei",
      "outputs": [],
      "stateMutability": "nonpayable",
      "type": "function"
    },
    {
      "inputs": [],
      "name": "dataFeed",
      "outputs": [
        {
          "internalType": "address",
          "name": "",
          "type": "address"
        }
      ],
      "stateMutability": "view",
      "type": "function"
    },
    {
      "inputs": [],
      "name": "rawColPrice",
      "outputs": [
        {
          "internalType": "int256",
          "name": "",
          "type": "int256"
        }
      ],
      "stateMutability": "view",
      "type": "function"
    },
    {
      "inputs": [
        {
          "internalType": "address",
          "name": "contractAddress",
          "type": "address"
        }
      ],
      "name": "setDataFeedAddress",
      "outputs": [],
      "stateMutability": "nonpayable",
      "type": "function"
    },
    {
      "inputs": [],
      "name": "unstableColPrice",
      "outputs": [
        {
          "internalType": "int256",
          "name": "",
          "type": "int256"
        }
      ],
      "stateMutability": "view",
      "type": "function"
    }
  ],
  "bytecode": "0x608060405234801561001057600080fd5b506105e9806100206000396000f3fe608060405234801561001057600080fd5b50600436106100575760003560e01c8063133c3c0f1461005c57806326ba7898146100665780635e6a4fb0146100825780639e42ff90146100a0578063f630ba51146100be575b600080fd5b6100646100dc565b005b610080600480360381019061007b9190610362565b61018e565b005b61008a610234565b60405161009791906103a8565b60405180910390f35b6100a861023a565b6040516100b591906103d2565b60405180910390f35b6100c6610260565b6040516100d391906103a8565b60405180910390f35b60008060009054906101000a900473ffffffffffffffffffffffffffffffffffffffff1673ffffffffffffffffffffffffffffffffffffffff1663feaf968c6040518163ffffffff1660e01b815260040160a060405180830381865afa15801561014a573d6000803e3d6000fd5b505050506040513d601f19601f8201168201806040525081019061016e9190610491565b5050509150506402540be40081610185919061053b565b60018190555050565b80600260006101000a81548173ffffffffffffffffffffffffffffffffffffffff021916908373ffffffffffffffffffffffffffffffffffffffff160217905550600260009054906101000a900473ffffffffffffffffffffffffffffffffffffffff166000806101000a81548173ffffffffffffffffffffffffffffffffffffffff021916908373ffffffffffffffffffffffffffffffffffffffff16021790555050565b60015481565b600260009054906101000a900473ffffffffffffffffffffffffffffffffffffffff1681565b60008060008054906101000a900473ffffffffffffffffffffffffffffffffffffffff1673ffffffffffffffffffffffffffffffffffffffff1663feaf968c6040518163ffffffff1660e01b815260040160a060405180830381865afa1580156102ce573d6000803e3d6000fd5b505050506040513d601f19601f820116820180604052508101906102f29190610491565b5050509150508091505090565b600080fd5b600073ffffffffffffffffffffffffffffffffffffffff82169050919050565b600061032f82610304565b9050919050565b61033f81610324565b811461034a57600080fd5b50565b60008135905061035c81610336565b92915050565b600060208284031215610378576103776102ff565b5b60006103868482850161034d565b91505092915050565b6000819050919050565b6103a28161038f565b82525050565b60006020820190506103bd6000830184610399565b92915050565b6103cc81610324565b82525050565b60006020820190506103e760008301846103c3565b92915050565b600069ffffffffffffffffffff82169050919050565b61040c816103ed565b811461041757600080fd5b50565b60008151905061042981610403565b92915050565b6104388161038f565b811461044357600080fd5b50565b6000815190506104558161042f565b92915050565b6000819050919050565b61046e8161045b565b811461047957600080fd5b50565b60008151905061048b81610465565b92915050565b600080600080600060a086880312156104ad576104ac6102ff565b5b60006104bb8882890161041a565b95505060206104cc88828901610446565b94505060406104dd8882890161047c565b93505060606104ee8882890161047c565b92505060806104ff8882890161041a565b9150509295509295909350565b7f4e487b7100000000000000000000000000000000000000000000000000000000600052601160045260246000fd5b60006105468261038f565b91506105518361038f565b925082820261055f8161038f565b91507f800000000000000000000000000000000000000000000000000000000000000084146000841216156105975761059661050c565b5b82820584148315176105ac576105ab61050c565b5b509291505056fea2646970667358221220231c345a2bf8dcd08cd86cdb99492d1eeaaa6a466d441a469559fb49f721bf2d64736f6c63430008180033",
  "linkReferences": {},
  "deployedLinkReferences": {}
}